{
  "contractName": "Petition",
  "abi": [
    {
      "anonymous": false,
      "inputs": [
        {
          "indexed": false,
          "internalType": "uint256",
          "name": "id",
          "type": "uint256"
        },
        {
          "indexed": false,
          "internalType": "string",
          "name": "name",
          "type": "string"
        }
      ],
      "name": "SignatureCreated",
      "type": "event"
    },
    {
      "inputs": [
        {
          "internalType": "uint256",
          "name": "",
          "type": "uint256"
        }
      ],
      "name": "signatures",
      "outputs": [
        {
          "internalType": "uint256",
          "name": "id",
          "type": "uint256"
        },
        {
          "internalType": "address",
          "name": "owner",
          "type": "address"
        },
        {
          "internalType": "string",
          "name": "name",
          "type": "string"
        }
      ],
      "stateMutability": "view",
      "type": "function",
      "constant": true
    },
    {
      "inputs": [],
      "name": "signatures_count",
      "outputs": [
        {
          "internalType": "uint256",
          "name": "",
          "type": "uint256"
        }
      ],
      "stateMutability": "view",
      "type": "function",
      "constant": true
    },
    {
      "inputs": [
        {
          "internalType": "string",
          "name": "_name",
          "type": "string"
        }
      ],
      "name": "create_signature",
      "outputs": [],
      "stateMutability": "nonpayable",
      "type": "function"
    }
  ],
  "bytecode": "0x60806040526000805534801561001457600080fd5b506107b0806100246000396000f3fe608060405234801561001057600080fd5b50600436106100415760003560e01c80636aa49df0146100465780638be1019414610062578063e4f0140914610094575b600080fd5b610060600480360381019061005b9190610494565b6100b2565b005b61007c60048036038101906100779190610513565b6101bf565b60405161008b93929190610618565b60405180910390f35b61009c610291565b6040516100a99190610656565b60405180910390f35b6000808154809291906100c4906106a0565b9190505550604051806060016040528060005481526020013373ffffffffffffffffffffffffffffffffffffffff1681526020018281525060016000805481526020019081526020016000206000820151816000015560208201518160010160006101000a81548173ffffffffffffffffffffffffffffffffffffffff021916908373ffffffffffffffffffffffffffffffffffffffff160217905550604082015181600201908051906020019061017d929190610297565b509050507fe2ace3ceb392b309a35f95a17f21f77f8defc978ccab98997cf8b4151a2c9cf9600054826040516101b49291906106e9565b60405180910390a150565b60016020528060005260406000206000915090508060000154908060010160009054906101000a900473ffffffffffffffffffffffffffffffffffffffff169080600201805461020e90610748565b80601f016020809104026020016040519081016040528092919081815260200182805461023a90610748565b80156102875780601f1061025c57610100808354040283529160200191610287565b820191906000526020600020905b81548152906001019060200180831161026a57829003601f168201915b5050505050905083565b60005481565b8280546102a390610748565b90600052602060002090601f0160209004810192826102c5576000855561030c565b82601f106102de57805160ff191683800117855561030c565b8280016001018555821561030c579182015b8281111561030b5782518255916020019190600101906102f0565b5b509050610319919061031d565b5090565b5b8082111561033657600081600090555060010161031e565b5090565b6000604051905090565b600080fd5b600080fd5b600080fd5b600080fd5b6000601f19601f8301169050919050565b7f4e487b7100000000000000000000000000000000000000000000000000000000600052604160045260246000fd5b6103a182610358565b810181811067ffffffffffffffff821117156103c0576103bf610369565b5b80604052505050565b60006103d361033a565b90506103df8282610398565b919050565b600067ffffffffffffffff8211156103ff576103fe610369565b5b61040882610358565b9050602081019050919050565b82818337600083830152505050565b6000610437610432846103e4565b6103c9565b90508281526020810184848401111561045357610452610353565b5b61045e848285610415565b509392505050565b600082601f83011261047b5761047a61034e565b5b813561048b848260208601610424565b91505092915050565b6000602082840312156104aa576104a9610344565b5b600082013567ffffffffffffffff8111156104c8576104c7610349565b5b6104d484828501610466565b91505092915050565b6000819050919050565b6104f0816104dd565b81146104fb57600080fd5b50565b60008135905061050d816104e7565b92915050565b60006020828403121561052957610528610344565b5b6000610537848285016104fe565b91505092915050565b610549816104dd565b82525050565b600073ffffffffffffffffffffffffffffffffffffffff82169050919050565b600061057a8261054f565b9050919050565b61058a8161056f565b82525050565b600081519050919050565b600082825260208201905092915050565b60005b838110156105ca5780820151818401526020810190506105af565b838111156105d9576000848401525b50505050565b60006105ea82610590565b6105f4818561059b565b93506106048185602086016105ac565b61060d81610358565b840191505092915050565b600060608201905061062d6000830186610540565b61063a6020830185610581565b818103604083015261064c81846105df565b9050949350505050565b600060208201905061066b6000830184610540565b92915050565b7f4e487b7100000000000000000000000000000000000000000000000000000000600052601160045260246000fd5b60006106ab826104dd565b91507fffffffffffffffffffffffffffffffffffffffffffffffffffffffffffffffff8214156106de576106dd610671565b5b600182019050919050565b60006040820190506106fe6000830185610540565b818103602083015261071081846105df565b90509392505050565b7f4e487b7100000000000000000000000000000000000000000000000000000000600052602260045260246000fd5b6000600282049050600182168061076057607f821691505b6020821081141561077457610773610719565b5b5091905056fea26469706673582212204666955b99d02d1bb6f79a099a962c7c65c634025e9de764a4308b9b98afdec364736f6c63430008090033",
  "immutableReferences": {},
  "source": "pragma solidity >=0.4.22 <0.9.0;\n\ncontract Petition {\n\tuint256 public signatures_count = 0;\n\n\tstruct Signature {\n\t\tuint256 id;\n\t\taddress owner;\n\t\tstring name;\n\t}\n\n\tevent SignatureCreated(\n\t\tuint256 id,\n\t\tstring name\n\t);\n\n\tmapping(uint256 => Signature) public signatures;\n\n\tfunction create_signature(string memory _name) public {\n\t\tsignatures_count++;\n\t\tsignatures[signatures_count] = Signature(signatures_count, msg.sender, _name);\n\t\temit SignatureCreated(signatures_count, _name);\n\t}\n}",
  "sourcePath": "/home/kldd0/main/projects/blockchain-programming/ethereum-petition/contracts/Petition.sol",
  "compiler": {
    "name": "solc",
    "version": "0.8.9+commit.e5eed63a.Emscripten.clang"
  },
  "schemaVersion": "3.4.3",
  "updatedAt": "2021-11-07T14:14:29.873Z",
  "networkType": "ethereum",
  "devdoc": {
    "kind": "dev",
    "methods": {},
    "version": 1
  },
  "userdoc": {
    "kind": "user",
    "methods": {},
    "version": 1
  }
}